{
  "contractName": "SupplyChain",
  "abi": [
    {
      "constant": true,
      "inputs": [
        {
          "internalType": "int256",
          "name": "",
          "type": "int256"
        }
      ],
      "name": "orders",
      "outputs": [
        {
          "internalType": "int256",
          "name": "id",
          "type": "int256"
        },
        {
          "internalType": "int256",
          "name": "product_id",
          "type": "int256"
        },
        {
          "internalType": "int256",
          "name": "quantity",
          "type": "int256"
        },
        {
          "internalType": "string",
          "name": "customer_name",
          "type": "string"
        },
        {
          "internalType": "string",
          "name": "status",
          "type": "string"
        },
        {
          "internalType": "string",
          "name": "delivery_address",
          "type": "string"
        },
        {
          "internalType": "address",
          "name": "customer_address",
          "type": "address"
        }
      ],
      "payable": false,
      "stateMutability": "view",
      "type": "function"
    },
    {
      "constant": true,
      "inputs": [
        {
          "internalType": "address",
          "name": "",
          "type": "address"
        }
      ],
      "name": "producers",
      "outputs": [
        {
          "internalType": "string",
          "name": "",
          "type": "string"
        }
      ],
      "payable": false,
      "stateMutability": "view",
      "type": "function"
    },
    {
      "constant": true,
      "inputs": [
        {
          "internalType": "int256",
          "name": "",
          "type": "int256"
        }
      ],
      "name": "products",
      "outputs": [
        {
          "internalType": "int256",
          "name": "id",
          "type": "int256"
        },
        {
          "internalType": "int256",
          "name": "price",
          "type": "int256"
        },
        {
          "internalType": "int256",
          "name": "quantity",
          "type": "int256"
        },
        {
          "internalType": "string",
          "name": "product_name",
          "type": "string"
        },
        {
          "internalType": "address",
          "name": "producer_address",
          "type": "address"
        }
      ],
      "payable": false,
      "stateMutability": "view",
      "type": "function"
    },
    {
      "constant": true,
      "inputs": [],
      "name": "totalOrder",
      "outputs": [
        {
          "internalType": "int256",
          "name": "",
          "type": "int256"
        }
      ],
      "payable": false,
      "stateMutability": "view",
      "type": "function"
    },
    {
      "constant": true,
      "inputs": [],
      "name": "totalProduct",
      "outputs": [
        {
          "internalType": "int256",
          "name": "",
          "type": "int256"
        }
      ],
      "payable": false,
      "stateMutability": "view",
      "type": "function"
    },
    {
      "constant": true,
      "inputs": [
        {
          "internalType": "address",
          "name": "_addr",
          "type": "address"
        }
      ],
      "name": "isRegistered",
      "outputs": [
        {
          "internalType": "bool",
          "name": "",
          "type": "bool"
        }
      ],
      "payable": false,
      "stateMutability": "view",
      "type": "function"
    },
    {
      "constant": false,
      "inputs": [
        {
          "internalType": "string",
          "name": "_name",
          "type": "string"
        }
      ],
      "name": "reginsterProducer",
      "outputs": [],
      "payable": false,
      "stateMutability": "nonpayable",
      "type": "function"
    },
    {
      "constant": false,
      "inputs": [
        {
          "internalType": "string",
          "name": "_pname",
          "type": "string"
        },
        {
          "internalType": "int256",
          "name": "_price",
          "type": "int256"
        },
        {
          "internalType": "int256",
          "name": "_quantity",
          "type": "int256"
        }
      ],
      "name": "addProduct",
      "outputs": [],
      "payable": false,
      "stateMutability": "nonpayable",
      "type": "function"
    },
    {
      "constant": true,
      "inputs": [
        {
          "internalType": "address",
          "name": "_addr",
          "type": "address"
        }
      ],
      "name": "getTotalProduct",
      "outputs": [
        {
          "internalType": "int256",
          "name": "",
          "type": "int256"
        }
      ],
      "payable": false,
      "stateMutability": "view",
      "type": "function"
    },
    {
      "constant": true,
      "inputs": [],
      "name": "getTotalProduct",
      "outputs": [
        {
          "internalType": "int256",
          "name": "",
          "type": "int256"
        }
      ],
      "payable": false,
      "stateMutability": "view",
      "type": "function"
    },
    {
      "constant": true,
      "inputs": [
        {
          "internalType": "address",
          "name": "_addr",
          "type": "address"
        },
        {
          "internalType": "int256",
          "name": "_pid",
          "type": "int256"
        }
      ],
      "name": "getNextProduct",
      "outputs": [
        {
          "internalType": "int256",
          "name": "",
          "type": "int256"
        },
        {
          "internalType": "int256",
          "name": "",
          "type": "int256"
        },
        {
          "internalType": "int256",
          "name": "",
          "type": "int256"
        },
        {
          "internalType": "string",
          "name": "",
          "type": "string"
        },
        {
          "internalType": "bool",
          "name": "",
          "type": "bool"
        }
      ],
      "payable": false,
      "stateMutability": "view",
      "type": "function"
    },
    {
      "constant": false,
      "inputs": [
        {
          "internalType": "int256",
          "name": "_pid",
          "type": "int256"
        },
        {
          "internalType": "int256",
          "name": "_newPrice",
          "type": "int256"
        }
      ],
      "name": "updatePrice",
      "outputs": [],
      "payable": false,
      "stateMutability": "nonpayable",
      "type": "function"
    },
    {
      "constant": true,
      "inputs": [
        {
          "internalType": "address",
          "name": "_addr",
          "type": "address"
        }
      ],
      "name": "getMyTotalOrder",
      "outputs": [
        {
          "internalType": "int256",
          "name": "",
          "type": "int256"
        }
      ],
      "payable": false,
      "stateMutability": "view",
      "type": "function"
    },
    {
      "constant": true,
      "inputs": [
        {
          "internalType": "address",
          "name": "_addr",
          "type": "address"
        },
        {
          "internalType": "int256",
          "name": "_oid",
          "type": "int256"
        }
      ],
      "name": "getMyNextOrderById",
      "outputs": [
        {
          "internalType": "int256",
          "name": "",
          "type": "int256"
        },
        {
          "internalType": "int256",
          "name": "",
          "type": "int256"
        },
        {
          "internalType": "int256",
          "name": "",
          "type": "int256"
        },
        {
          "internalType": "string",
          "name": "",
          "type": "string"
        },
        {
          "internalType": "string",
          "name": "",
          "type": "string"
        },
        {
          "internalType": "string",
          "name": "",
          "type": "string"
        },
        {
          "internalType": "bool",
          "name": "",
          "type": "bool"
        }
      ],
      "payable": false,
      "stateMutability": "view",
      "type": "function"
    },
    {
      "constant": false,
      "inputs": [
        {
          "internalType": "int256",
          "name": "_oid",
          "type": "int256"
        },
        {
          "internalType": "string",
          "name": "_status",
          "type": "string"
        }
      ],
      "name": "updateOrderStatus",
      "outputs": [],
      "payable": false,
      "stateMutability": "nonpayable",
      "type": "function"
    },
    {
      "constant": true,
      "inputs": [
        {
          "internalType": "int256",
          "name": "_pid",
          "type": "int256"
        }
      ],
      "name": "getProductById",
      "outputs": [
        {
          "internalType": "int256",
          "name": "",
          "type": "int256"
        },
        {
          "internalType": "int256",
          "name": "",
          "type": "int256"
        },
        {
          "internalType": "int256",
          "name": "",
          "type": "int256"
        },
        {
          "internalType": "string",
          "name": "",
          "type": "string"
        }
      ],
      "payable": false,
      "stateMutability": "view",
      "type": "function"
    },
    {
      "constant": false,
      "inputs": [
        {
          "internalType": "string",
          "name": "_cname",
          "type": "string"
        },
        {
          "internalType": "string",
          "name": "_daddress",
          "type": "string"
        },
        {
          "internalType": "int256",
          "name": "_pid",
          "type": "int256"
        },
        {
          "internalType": "int256",
          "name": "_quantity",
          "type": "int256"
        }
      ],
      "name": "placeOrder",
      "outputs": [],
      "payable": false,
      "stateMutability": "nonpayable",
      "type": "function"
    },
    {
      "constant": true,
      "inputs": [
        {
          "internalType": "address",
          "name": "_addr",
          "type": "address"
        }
      ],
      "name": "getTotalOrder",
      "outputs": [
        {
          "internalType": "int256",
          "name": "",
          "type": "int256"
        }
      ],
      "payable": false,
      "stateMutability": "view",
      "type": "function"
    },
    {
      "constant": true,
      "inputs": [],
      "name": "getTotalOrder",
      "outputs": [
        {
          "internalType": "int256",
          "name": "",
          "type": "int256"
        }
      ],
      "payable": false,
      "stateMutability": "view",
      "type": "function"
    },
    {
      "constant": true,
      "inputs": [
        {
          "internalType": "address",
          "name": "_addr",
          "type": "address"
        },
        {
          "internalType": "int256",
          "name": "_oid",
          "type": "int256"
        }
      ],
      "name": "fetchNextOrderById",
      "outputs": [
        {
          "internalType": "int256",
          "name": "",
          "type": "int256"
        },
        {
          "internalType": "int256",
          "name": "",
          "type": "int256"
        },
        {
          "internalType": "int256",
          "name": "",
          "type": "int256"
        },
        {
          "internalType": "string",
          "name": "",
          "type": "string"
        },
        {
          "internalType": "string",
          "name": "",
          "type": "string"
        },
        {
          "internalType": "string",
          "name": "",
          "type": "string"
        },
        {
          "internalType": "bool",
          "name": "",
          "type": "bool"
        }
      ],
      "payable": false,
      "stateMutability": "view",
      "type": "function"
    }
  ],
  "bytecode": "0x60806040526000600155600060035534801561001a57600080fd5b506128ab8061002a6000396000f3fe608060405234801561001057600080fd5b506004361061012c5760003560e01c80636b56a8ce116100ad578063ae76994f11610071578063ae76994f14610ad3578063b36a535014610c92578063b41a518414610d4d578063c3c5a54714610f14578063dad1d4c114610f705761012c565b80636b56a8ce14610669578063756b27f51461082857806377f98616146108805780639023f2731461089e57806399b88fb61461096d5761012c565b80632f28e940116100f45780632f28e940146103f857806332f43b2b14610450578063424acc9814610537578063566bceef146105f3578063608a2596146106115761012c565b8063049f7874146101315780631ed79dfd146101f6578063216e2a971461022e57806326324eff1461024c5780632b34642314610309575b600080fd5b6101f46004803603604081101561014757600080fd5b81019080803590602001909291908035906020019064010000000081111561016e57600080fd5b82018360208201111561018057600080fd5b803590602001918460018302840111640100000000831117156101a257600080fd5b91908080601f016020809104026020016040519081016040528093929190818152602001838380828437600081840152601f19601f820116905080830192505050505050509192919290505050610f8e565b005b61022c6004803603604081101561020c57600080fd5b810190808035906020019092919080359060200190929190505050611321565b005b6102366113ae565b6040518082815260200191505060405180910390f35b61028e6004803603602081101561026257600080fd5b81019080803573ffffffffffffffffffffffffffffffffffffffff1690602001909291905050506113b4565b6040518080602001828103825283818151815260200191508051906020019080838360005b838110156102ce5780820151818401526020810190506102b3565b50505050905090810190601f1680156102fb5780820380516001836020036101000a031916815260200191505b509250505060405180910390f35b6103356004803603602081101561031f57600080fd5b8101908080359060200190929190505050611464565b60405180868152602001858152602001848152602001806020018373ffffffffffffffffffffffffffffffffffffffff1673ffffffffffffffffffffffffffffffffffffffff168152602001828103825284818151815260200191508051906020019080838360005b838110156103b957808201518184015260208101905061039e565b50505050905090810190601f1680156103e65780820380516001836020036101000a031916815260200191505b50965050505050505060405180910390f35b61043a6004803603602081101561040e57600080fd5b81019080803573ffffffffffffffffffffffffffffffffffffffff169060200190929190505050611552565b6040518082815260200191505060405180910390f35b61049c6004803603604081101561046657600080fd5b81019080803573ffffffffffffffffffffffffffffffffffffffff16906020019092919080359060200190929190505050611609565b604051808681526020018581526020018481526020018060200183151515158152602001828103825284818151815260200191508051906020019080838360005b838110156104f85780820151818401526020810190506104dd565b50505050905090810190601f1680156105255780820380516001836020036101000a031916815260200191505b50965050505050505060405180910390f35b6105636004803603602081101561054d57600080fd5b81019080803590602001909291905050506117c8565b6040518085815260200184815260200183815260200180602001828103825283818151815260200191508051906020019080838360005b838110156105b557808201518184015260208101905061059a565b50505050905090810190601f1680156105e25780820380516001836020036101000a031916815260200191505b509550505050505060405180910390f35b6105fb6118e4565b6040518082815260200191505060405180910390f35b6106536004803603602081101561062757600080fd5b81019080803573ffffffffffffffffffffffffffffffffffffffff1690602001909291905050506118ea565b6040518082815260200191505060405180910390f35b6106b56004803603604081101561067f57600080fd5b81019080803573ffffffffffffffffffffffffffffffffffffffff1690602001909291908035906020019092919050505061198b565b6040518088815260200187815260200186815260200180602001806020018060200185151515158152602001848103845288818151815260200191508051906020019080838360005b838110156107195780820151818401526020810190506106fe565b50505050905090810190601f1680156107465780820380516001836020036101000a031916815260200191505b50848103835287818151815260200191508051906020019080838360005b8381101561077f578082015181840152602081019050610764565b50505050905090810190601f1680156107ac5780820380516001836020036101000a031916815260200191505b50848103825286818151815260200191508051906020019080838360005b838110156107e55780820151818401526020810190506107ca565b50505050905090810190601f1680156108125780820380516001836020036101000a031916815260200191505b509a505050505050505050505060405180910390f35b61086a6004803603602081101561083e57600080fd5b81019080803573ffffffffffffffffffffffffffffffffffffffff169060200190929190505050611cf3565b6040518082815260200191505060405180910390f35b610888611d94565b6040518082815260200191505060405180910390f35b61096b600480360360608110156108b457600080fd5b81019080803590602001906401000000008111156108d157600080fd5b8201836020820111156108e357600080fd5b8035906020019184600183028401116401000000008311171561090557600080fd5b91908080601f016020809104026020016040519081016040528093929190818152602001838380828437600081840152601f19601f8201169050808301925050505050505091929192908035906020019092919080359060200190929190505050611d9e565b005b610ad16004803603608081101561098357600080fd5b81019080803590602001906401000000008111156109a057600080fd5b8201836020820111156109b257600080fd5b803590602001918460018302840111640100000000831117156109d457600080fd5b91908080601f016020809104026020016040519081016040528093929190818152602001838380828437600081840152601f19601f82011690508083019250505050505050919291929080359060200190640100000000811115610a3757600080fd5b820183602082011115610a4957600080fd5b80359060200191846001830284011164010000000083111715610a6b57600080fd5b91908080601f016020809104026020016040519081016040528093929190818152602001838380828437600081840152601f19601f8201169050808301925050505050505091929192908035906020019092919080359060200190929190505050611e8c565b005b610b1f60048036036040811015610ae957600080fd5b81019080803573ffffffffffffffffffffffffffffffffffffffff169060200190929190803590602001909291905050506120a7565b6040518088815260200187815260200186815260200180602001806020018060200185151515158152602001848103845288818151815260200191508051906020019080838360005b83811015610b83578082015181840152602081019050610b68565b50505050905090810190601f168015610bb05780820380516001836020036101000a031916815260200191505b50848103835287818151815260200191508051906020019080838360005b83811015610be9578082015181840152602081019050610bce565b50505050905090810190601f168015610c165780820380516001836020036101000a031916815260200191505b50848103825286818151815260200191508051906020019080838360005b83811015610c4f578082015181840152602081019050610c34565b50505050905090810190601f168015610c7c5780820380516001836020036101000a031916815260200191505b509a505050505050505050505060405180910390f35b610d4b60048036036020811015610ca857600080fd5b8101908080359060200190640100000000811115610cc557600080fd5b820183602082011115610cd757600080fd5b80359060200191846001830284011164010000000083111715610cf957600080fd5b91908080601f016020809104026020016040519081016040528093929190818152602001838380828437600081840152601f19601f8201169050808301925050505050505091929192905050506123f9565b005b610d7960048036036020811015610d6357600080fd5b81019080803590602001909291905050506124ae565b604051808881526020018781526020018681526020018060200180602001806020018573ffffffffffffffffffffffffffffffffffffffff1673ffffffffffffffffffffffffffffffffffffffff168152602001848103845288818151815260200191508051906020019080838360005b83811015610e05578082015181840152602081019050610dea565b50505050905090810190601f168015610e325780820380516001836020036101000a031916815260200191505b50848103835287818151815260200191508051906020019080838360005b83811015610e6b578082015181840152602081019050610e50565b50505050905090810190601f168015610e985780820380516001836020036101000a031916815260200191505b50848103825286818151815260200191508051906020019080838360005b83811015610ed1578082015181840152602081019050610eb6565b50505050905090810190601f168015610efe5780820380516001836020036101000a031916815260200191505b509a505050505050505050505060405180910390f35b610f5660048036036020811015610f2a57600080fd5b81019080803573ffffffffffffffffffffffffffffffffffffffff1690602001909291905050506126d8565b604051808215151515815260200191505060405180910390f35b610f78612747565b6040518082815260200191505060405180910390f35b3373ffffffffffffffffffffffffffffffffffffffff16600260006004600086815260200190815260200160002060010154815260200190815260200160002060040160009054906101000a900473ffffffffffffffffffffffffffffffffffffffff1673ffffffffffffffffffffffffffffffffffffffff161461101257600080fd5b60405160200180807f52656a6563746564000000000000000000000000000000000000000000000000815250600801905060405160208183030381529060405280519060200120816040516020018082805190602001908083835b60208310611090578051825260208201915060208101905060208303925061106d565b6001836020036101000a0380198251168184511680821785525050505050509050019150506040516020818303038152906040528051906020012014156111515760046000838152602001908152602001600020600201546002600060046000868152602001908152602001600020600101548152602001908152602001600020600201600082825401925050819055508060046000848152602001908152602001600020600401908051906020019061114b929190612751565b5061131d565b60405160200180807f52656a656374656400000000000000000000000000000000000000000000000081525060080190506040516020818303038152906040528051906020012060046000848152602001908152602001600020600401604051602001808280546001816001161561010002031660029004801561120c5780601f106111ea57610100808354040283529182019161120c565b820191906000526020600020905b8154815290600101906020018083116111f8575b505091505060405160208183030381529060405280519060200120141580156112eb575060405160200180807f44656c6976657265640000000000000000000000000000000000000000000000815250600901905060405160208183030381529060405280519060200120816040516020018082805190602001908083835b602083106112ae578051825260208201915060208101905060208303925061128b565b6001836020036101000a03801982511681845116808217855250505050505090500191505060405160208183030381529060405280519060200120145b1561131c578060046000848152602001908152602001600020600401908051906020019061131a929190612751565b505b5b5050565b3373ffffffffffffffffffffffffffffffffffffffff166002600084815260200190815260200160002060040160009054906101000a900473ffffffffffffffffffffffffffffffffffffffff1673ffffffffffffffffffffffffffffffffffffffff161461138f57600080fd5b8060026000848152602001908152602001600020600101819055505050565b60035481565b60006020528060005260406000206000915090508054600181600116156101000203166002900480601f01602080910402602001604051908101604052809291908181526020018280546001816001161561010002031660029004801561145c5780601f106114315761010080835404028352916020019161145c565b820191906000526020600020905b81548152906001019060200180831161143f57829003601f168201915b505050505081565b6002602052806000526040600020600091509050806000015490806001015490806002015490806003018054600181600116156101000203166002900480601f0160208091040260200160405190810160405280929190818152602001828054600181600116156101000203166002900480156115225780601f106114f757610100808354040283529160200191611522565b820191906000526020600020905b81548152906001019060200180831161150557829003601f168201915b5050505050908060040160009054906101000a900473ffffffffffffffffffffffffffffffffffffffff16905085565b600080600090506000600190505b60035481136115ff578373ffffffffffffffffffffffffffffffffffffffff16600260006004600085815260200190815260200160002060010154815260200190815260200160002060040160009054906101000a900473ffffffffffffffffffffffffffffffffffffffff1673ffffffffffffffffffffffffffffffffffffffff1614156115f25781806001019250505b8080600101915050611560565b5080915050919050565b60008060006060600060015486131561162157600080fd5b8673ffffffffffffffffffffffffffffffffffffffff166002600088815260200190815260200160002060040160009054906101000a900473ffffffffffffffffffffffffffffffffffffffff1673ffffffffffffffffffffffffffffffffffffffff16141561179357600260008781526020019081526020016000206000015460026000888152602001908152602001600020600101546002600089815260200190815260200160002060020154600260008a81526020019081526020016000206003016001818054600181600116156101000203166002900480601f01602080910402602001604051908101604052809291908181526020018280546001816001161561010002031660029004801561177d5780601f106117525761010080835404028352916020019161177d565b820191906000526020600020905b81548152906001019060200180831161176057829003601f168201915b50505050509150945094509450945094506117be565b6000806000808393508292508191506040518060200160405280600081525090945094509450945094505b9295509295909350565b600080600060606001548513156117de57600080fd5b60026000868152602001908152602001600020600001546002600087815260200190815260200160002060010154600260008881526020019081526020016000206002015460026000898152602001908152602001600020600301808054600181600116156101000203166002900480601f0160208091040260200160405190810160405280929190818152602001828054600181600116156101000203166002900480156118ce5780601f106118a3576101008083540402835291602001916118ce565b820191906000526020600020905b8154815290600101906020018083116118b157829003601f168201915b5050505050905093509350935093509193509193565b60015481565b600080600090506000600190505b6001548113611981578373ffffffffffffffffffffffffffffffffffffffff166002600083815260200190815260200160002060040160009054906101000a900473ffffffffffffffffffffffffffffffffffffffff1673ffffffffffffffffffffffffffffffffffffffff1614156119745781806001019250505b80806001019150506118f8565b5080915050919050565b6000806000606080606060006003548813156119a657600080fd5b8873ffffffffffffffffffffffffffffffffffffffff1660026000600460008c815260200190815260200160002060010154815260200190815260200160002060040160009054906101000a900473ffffffffffffffffffffffffffffffffffffffff1673ffffffffffffffffffffffffffffffffffffffff161415611c96576004600089815260200190815260200160002060000154600460008a815260200190815260200160002060010154600460008b815260200190815260200160002060020154600460008c8152602001908152602001600020600301600460008d8152602001908152602001600020600401600460008e81526020019081526020016000206005016001838054600181600116156101000203166002900480601f016020809104026020016040519081016040528092919081815260200182805460018160011615610100020316600290048015611b445780601f10611b1957610100808354040283529160200191611b44565b820191906000526020600020905b815481529060010190602001808311611b2757829003601f168201915b50505050509350828054600181600116156101000203166002900480601f016020809104026020016040519081016040528092919081815260200182805460018160011615610100020316600290048015611be05780601f10611bb557610100808354040283529160200191611be0565b820191906000526020600020905b815481529060010190602001808311611bc357829003601f168201915b50505050509250818054600181600116156101000203166002900480601f016020809104026020016040519081016040528092919081815260200182805460018160011615610100020316600290048015611c7c5780601f10611c5157610100808354040283529160200191611c7c565b820191906000526020600020905b815481529060010190602001808311611c5f57829003601f168201915b505050505091509650965096509650965096509650611ce7565b60008060008083935082925081915060405180602001604052806000815250906040518060200160405280600081525090604051806020016040528060008152509096509650965096509650965096505b92959891949750929550565b600080600090506000600190505b6003548113611d8a576004600082815260200190815260200160002060060160009054906101000a900473ffffffffffffffffffffffffffffffffffffffff1673ffffffffffffffffffffffffffffffffffffffff168473ffffffffffffffffffffffffffffffffffffffff161415611d7d5781806001019250505b8080600101915050611d01565b5080915050919050565b6000600154905090565b600180600082825401925050819055506040518060a0016040528060015481526020018381526020018281526020018481526020013373ffffffffffffffffffffffffffffffffffffffff168152506002600060015481526020019081526020016000206000820151816000015560208201518160010155604082015181600201556060820151816003019080519060200190611e3c9291906127d1565b5060808201518160040160006101000a81548173ffffffffffffffffffffffffffffffffffffffff021916908373ffffffffffffffffffffffffffffffffffffffff160217905550905050505050565b8060026000848152602001908152602001600020600201541215611f18576040517f08c379a00000000000000000000000000000000000000000000000000000000081526004018080602001828103825260158152602001807f496e73756666696369656e74207175616e74697479000000000000000000000081525060200191505060405180910390fd5b60016003600082825401925050819055506040518060e0016040528060035481526020018381526020018281526020018581526020016040518060400160405280600681526020017f506c61636564000000000000000000000000000000000000000000000000000081525081526020018481526020013373ffffffffffffffffffffffffffffffffffffffff168152506004600060035481526020019081526020016000206000820151816000015560208201518160010155604082015181600201556060820151816003019080519060200190611ff89291906127d1565b5060808201518160040190805190602001906120159291906127d1565b5060a08201518160050190805190602001906120329291906127d1565b5060c08201518160060160006101000a81548173ffffffffffffffffffffffffffffffffffffffff021916908373ffffffffffffffffffffffffffffffffffffffff16021790555090505080600260008481526020019081526020016000206002016000828254039250508190555050505050565b6000806000606080606060006003548813156120c257600080fd5b6004600089815260200190815260200160002060060160009054906101000a900473ffffffffffffffffffffffffffffffffffffffff1673ffffffffffffffffffffffffffffffffffffffff168973ffffffffffffffffffffffffffffffffffffffff16141561239c576004600089815260200190815260200160002060000154600460008a815260200190815260200160002060010154600460008b815260200190815260200160002060020154600460008c8152602001908152602001600020600301600460008d8152602001908152602001600020600401600460008e81526020019081526020016000206005016001838054600181600116156101000203166002900480601f01602080910402602001604051908101604052809291908181526020018280546001816001161561010002031660029004801561224a5780601f1061221f5761010080835404028352916020019161224a565b820191906000526020600020905b81548152906001019060200180831161222d57829003601f168201915b50505050509350828054600181600116156101000203166002900480601f0160208091040260200160405190810160405280929190818152602001828054600181600116156101000203166002900480156122e65780601f106122bb576101008083540402835291602001916122e6565b820191906000526020600020905b8154815290600101906020018083116122c957829003601f168201915b50505050509250818054600181600116156101000203166002900480601f0160208091040260200160405190810160405280929190818152602001828054600181600116156101000203166002900480156123825780601f1061235757610100808354040283529160200191612382565b820191906000526020600020905b81548152906001019060200180831161236557829003601f168201915b5050505050915096509650965096509650965096506123ed565b60008060008083935082925081915060405180602001604052806000815250906040518060200160405280600081525090604051806020016040528060008152509096509650965096509650965096505b92959891949750929550565b60008060003373ffffffffffffffffffffffffffffffffffffffff1673ffffffffffffffffffffffffffffffffffffffff1681526020019081526020016000208054600181600116156101000203166002900490501461245857600080fd5b806000803373ffffffffffffffffffffffffffffffffffffffff1673ffffffffffffffffffffffffffffffffffffffff16815260200190815260200160002090805190602001906124aa929190612751565b5050565b6004602052806000526040600020600091509050806000015490806001015490806002015490806003018054600181600116156101000203166002900480601f01602080910402602001604051908101604052809291908181526020018280546001816001161561010002031660029004801561256c5780601f106125415761010080835404028352916020019161256c565b820191906000526020600020905b81548152906001019060200180831161254f57829003601f168201915b505050505090806004018054600181600116156101000203166002900480601f01602080910402602001604051908101604052809291908181526020018280546001816001161561010002031660029004801561260a5780601f106125df5761010080835404028352916020019161260a565b820191906000526020600020905b8154815290600101906020018083116125ed57829003601f168201915b505050505090806005018054600181600116156101000203166002900480601f0160208091040260200160405190810160405280929190818152602001828054600181600116156101000203166002900480156126a85780601f1061267d576101008083540402835291602001916126a8565b820191906000526020600020905b81548152906001019060200180831161268b57829003601f168201915b5050505050908060060160009054906101000a900473ffffffffffffffffffffffffffffffffffffffff16905087565b6000806000808473ffffffffffffffffffffffffffffffffffffffff1673ffffffffffffffffffffffffffffffffffffffff168152602001908152602001600020805460018160011615610100020316600290049050141561273d5760009050612742565b600190505b919050565b6000600354905090565b828054600181600116156101000203166002900490600052602060002090601f016020900481019282601f1061279257805160ff19168380011785556127c0565b828001600101855582156127c0579182015b828111156127bf5782518255916020019190600101906127a4565b5b5090506127cd9190612851565b5090565b828054600181600116156101000203166002900490600052602060002090601f016020900481019282601f1061281257805160ff1916838001178555612840565b82800160010185558215612840579182015b8281111561283f578251825591602001919060010190612824565b5b50905061284d9190612851565b5090565b61287391905b8082111561286f576000816000905550600101612857565b5090565b9056fea265627a7a7231582067794ab8ef8e5c721165a92c1aba94f5f73cffcfb1bb904950885742dbe3d4bc64736f6c63430005100032",
  "source": "pragma solidity ^0.5.0;\n\ncontract SupplyChain{\n    // Producer list [address and name].\n    mapping(address => string) public producers;\n    \n    // Products details.\n    int public totalProduct = 0;\n    struct product{\n        int id;\n        int price;\n        int quantity;\n        string product_name;\n        address producer_address;\n    }\n    mapping(int=>product) public products;\n    \n    // Order details\n    int public totalOrder = 0;\n    struct order{\n        int id;\n        int product_id;\n        int quantity;\n        string customer_name;\n        string status;\n        string delivery_address;\n        address customer_address;\n    }\n    mapping(int => order) public orders;\n    \n    // register producer authentication.\n    modifier reginsterProducerAuth() {\n        require(bytes(producers[msg.sender]).length == 0);\n        _;\n    }\n    \n    // Add product authentication.\n    modifier addProductAuth() {\n        require(bytes(producers[msg.sender]).length > 0);\n        _;\n    }\n    \n    // for all\n    \n    function getTotalProduct() view public returns (int) {\n        return totalProduct;\n    }\n    \n    function getTotalOrder() view public returns (int) {\n        return totalOrder;\n    }\n    \n    \n    \n    // Seller\n    \n    function isRegistered(address _addr) view public returns (bool) {\n        if(bytes(producers[_addr]).length == 0){\n            return (false);\n        }else{\n            return (true);\n        }\n    }\n    \n    function reginsterProducer(string memory _name) public reginsterProducerAuth {\n        producers[msg.sender] = _name;\n    }\n    \n    function addProduct(string memory _pname, int _price, int _quantity) public  {\n        totalProduct += 1;\n        products[totalProduct] = product(totalProduct, _price, _quantity, _pname, msg.sender);\n    }\n    \n    function getTotalProduct(address _addr) view public returns (int) {\n        int counter = 0;\n        for(int i=1; i<=totalProduct;i++){\n            if(products[i].producer_address == _addr){\n                counter++;\n            }\n        }\n        return (counter);\n    }\n    \n    function getNextProduct(address _addr, int _pid) view public returns (int, int, int, string memory, bool) {\n        require(_pid <= totalProduct);\n        \n        if(products[_pid].producer_address == _addr){\n            return (products[_pid].id, products[_pid].price, products[_pid].quantity, products[_pid].product_name, true);\n        }\n        return (0,0, 0, \"\", false);\n    }\n    \n    function updatePrice(int _pid, int _newPrice) public {\n        require(products[_pid].producer_address == msg.sender);\n        products[_pid].price = _newPrice;\n    }\n    \n    function getMyTotalOrder(address _addr) view public returns (int) {\n        int counter = 0;\n        for(int i=1; i<=totalOrder; i++){\n            if(products[orders[i].product_id].producer_address == _addr){\n                counter++;\n            }\n        }\n        return (counter);\n    }\n    \n    function getMyNextOrderById(address _addr,int _oid) view public returns(int,int,int,string memory,string memory,string memory, bool) {\n         require(_oid <= totalOrder);\n         if(products[orders[_oid].product_id].producer_address==_addr){\n             return (orders[_oid].id, orders[_oid].product_id, orders[_oid].quantity, orders[_oid].customer_name, orders[_oid].status, orders[_oid].delivery_address, true);\n         }\n         return (0,0,0,\"\",\"\",\"\",false);\n    }\n    \n    function updateOrderStatus(int _oid, string memory _status) public {\n        require(products[orders[_oid].product_id].producer_address == msg.sender);\n        if (keccak256(abi.encodePacked(_status)) == keccak256(abi.encodePacked(\"Rejected\"))) {\n            products[orders[_oid].product_id].quantity+=orders[_oid].quantity;\n            orders[_oid].status = _status;\n        }else{\n            if(keccak256(abi.encodePacked(orders[_oid].status))!=keccak256(abi.encodePacked(\"Rejected\"))&&\n            keccak256(abi.encodePacked(_status))==keccak256(abi.encodePacked(\"Delivered\"))){\n                orders[_oid].status = _status;\n            }\n        }\n    }\n    \n    // intermediate bodies \n\n    \n    \n    \n    // customer\n    \n    function getProductById(int _pid) view public returns (int, int, int, string memory) {\n        require(_pid <= totalProduct);\n        return (products[_pid].id, products[_pid].price, products[_pid].quantity, products[_pid].product_name);\n    }\n    \nfunction placeOrder(string memory _cname, string memory _daddress, int _pid, int _quantity) public {\n    require(products[_pid].quantity >= _quantity, \"Insufficient quantity\");\n\n    // int totalPrice = products[_pid].price * _quantity;\n    // require(msg.value >= uint(totalPrice), \"Insufficient payment\");\n\n    totalOrder += 1;\n\n    orders[totalOrder] = order(totalOrder, _pid, _quantity, _cname, \"Placed\", _daddress, msg.sender);\n    products[_pid].quantity -= _quantity;\n    // if (msg.value > uint(totalPrice)) {\n    //     msg.sender.transfer(msg.value - uint(totalPrice));\n    // }\n}\n    \n    function getTotalOrder(address _addr) view public returns (int) {\n        int counter = 0;\n        for(int i=1; i <= totalOrder; i++){\n            if(_addr == orders[i].customer_address){\n                counter++;\n            }\n        }\n        return (counter);\n    }\n    \n    function fetchNextOrderById(address _addr, int _oid) view public returns (int, int, int, string memory, string memory, string memory, bool){\n        require(_oid <= totalOrder);\n            if(_addr==orders[_oid].customer_address){\n                return (orders[_oid].id, orders[_oid].product_id, orders[_oid].quantity, orders[_oid].customer_name, orders[_oid].status, orders[_oid].delivery_address, true);\n            }\n        return (0, 0, 0, \"\", \"\", \"\", false);\n    }\n\n}",
  "sourcePath": "D:\\a sem 6\\bc\\minipro\\food-supply-chain\\contracts\\SupplyChain.sol",
  "compiler": {
    "name": "solc",
    "version": "0.5.16+commit.9c3226ce.Emscripten.clang"
  },
  "schemaVersion": "3.4.16",
  "updatedAt": "2024-04-25T07:08:43.611Z",
  "networkType": "ethereum",
  "devdoc": {
    "methods": {}
  },
  "userdoc": {
    "methods": {}
  }
}